:041000000CEF08F0F9
:10100800FACF07F0FBCF08F0E9CF09F0D6ED10F0E2
:10101800D5EF13F000010000000A00000064000092
:1010280000E803000010270000A086010040420FDE
:10103800008096980000E1F50500CA9A3B74657334
:10104800742070726F67204C696E757800256C7516
:101058002E25362E366C75007465737465205057CE
:101068004D0020202020202000002F0E0001656F59
:10107800000E0001666FEFD1250E00016F19D8B47C
:1010880009D02BC0D9FF2CC0DAFF6FC0DFFF2B4A75
:101098002C2AE1D1000E00016C6F000E6B6F000E60
:1010A8000001646F2DC0F6FF2EC0F7FFF86A080034
:1010B800F550C4EC13F0D8A043D0000E00016C6FBB
:1010C800000E6B6F00D06BC015F06CC016F0000EF0
:1010D800186E0A0E176E8CEC13F015C06BF016C064
:1010E8006CF0D00E0001606FFF0E0001616F2DC023
:1010F800F6FF2EC0F7FFF86A0800F5500001626F8E
:10110800636B000160510001622700016151000119
:1011180063230001625100016B2700016351000144
:101128006C232D4A2E2A2DC0F6FF2EC0F7FFF86A31
:101138000800F550C4EC13F0D8A002D0C4D700D0F2
:101148002DC0F6FF2EC0F7FFF86A0800F5502E0AEA
:10115800D8A434D02D4A2E2A000E00016E6F000E3E
:101168006D6F1FD06DC015F06EC016F0000E186EB2
:101178000A0E176E8CEC13F02DC0F6FF2EC0F7FF89
:10118800F86A0800F5501526000E1622D00E152410
:1011980000016D6FFF0E162000016E6F2D4A2E2A7A
:1011A80000D02DC0F6FF2EC0F7FFF86A0800F550F2
:1011B800C4EC13F0D8A011D0D5D70FD0000E000181
:1011C8006E6F000E6D6F09D056D10001648905D08D
:1011D80042D1C00E0001641316D02DC0F6FF2EC0F8
:1011E800F7FF2D4A2E2AF86A0800F5CF6FF00001A4
:1011F8006F51000AD8B43FD16C0AD8B4E6D7190A9F
:10120800D8B4E7D728D1000164A90ED065C0D9FFAA
:1012180066C0DAFFDECF67F0DECF68F0DECF69F0B8
:10122800DECF6AF0040E10D065C0D9FF66C0DAFFC1
:10123800DECF60F0DDCF61F060C067F061C068F0BC
:101248000001696B6A6B020E00016527000E6623B8
:1012580000D000016D5100016E11D8A40ED000011C
:101268006751000168110001691100016A11D8A4D1
:1012780004D000016D4B6E2B00D0010E00016F6F82
:101288000A0E00016F19D8B425D001D023D000016F
:101298006F51040D1D0EF324F66E100EF420F76E38
:1012A800F86A000EF8220900F5500001675D090090
:1012B800F550000168590900F55000016959090005
:1012C800F55000016A59D8A005D001D003D000011B
:1012D8006F2BD6D7800E00016FBF7F0E0001606FA5
:1012E80000016D5100016F5D00016E51800A00011F
:1012F8006059D8B003D06DC06FF019D000016E519D
:10130800800A0001606F00016F5100016D5D800E61
:1013180000016FBF7F0E00016059D8B008D00001EE
:101328006F5100016D6F6E6B6DBF6E0700D0800E40
:1013380000016FBF7F0E0001606F00016B5100015B
:101348006F5D00016C51800A00016059D8B00BD064
:1013580000016F5100016B5F000E00016FBFFF0EAF
:1013680000016C5B06D0000E00016C6F000E6B6F05
:1013780000D000016B5100016C11D8B45FD02BC0B4
:10138800D9FF2CC0DAFF200EDF6E2B4A2C2A000171
:101398006B07D8A06C0700016B5100016C11D8B421
:1013A8004DD0EDD74BD06DC060F06EC061F000013C
:1013B800D890603761370001D890603761371D0ECB
:1013C80000016025F66E100E6121F76EF86A000EB6
:1013D800F8220900F5CF19F00900F5CF1AF0090035
:1013E800F5CF1BF00A00F5CF1CF067C015F068C0F8
:1013F80016F069C017F06AC018F090EC10F015C02C
:1014080022F016C023F017C024F018C025F00A0EE9
:10141800266E000E276E000E286E000E296E4FEC09
:1014280011F02250300F00016F6F2BC0D9FF2CC074
:10143800DAFF6FC0DFFF2B4A2C2A00D000016D07AE
:10144800D8A06E0700016D29AEE100016E29D8B45D
:1014580002D0A9D700D02DC0F6FF2EC0F7FF2D4A25
:101468002E2AF86A0800F5CF6FF000016F51D8B442
:1014780002D002D600D02BC0D9FF2CC0DAFF000E54
:10148800DF6E00D0120014EC12F042EC10F045ECC4
:1014980013F0040E156EFE0E166EEF0EB7EC11F07B
:1014A800BB0EE4EC13F0BB0E29EC13F03AC02CF0A1
:1014B8003BC02DF03CC02EF04AEC0DF02CC035F0AE
:1014C8002DC036F0CBEC12F03AC02CF03BC02DF01A
:1014D8003CC02EF04AEC0DF02CC035F02DC036F093
:1014E800A9EC12F0010E196E600E1A6E100E1B6E2A
:1014F800010EEFEC0FF0020E196E450E1A6E100E6B
:101508001B6E010EEFEC0FF0000E446E000E456EE0
:10151800000E466E000E476E000E486E00D03D0469
:101528003E10D8A4DFD0020E196E6C0E1A6E100E83
:101538001B6E010EEFEC0FF0030E196E6C0E1A6E97
:10154800100E1B6E010EEFEC0FF0040E196E6C0EF0
:101558001A6E100E1B6E010EEFEC0FF0000E166ED9
:101568000A0E156EEDEC12F0020E196E440E1A6E8C
:10157800000E1B6E010EEFEC0FF0000E166E0A0E39
:10158800156EEDEC12F0440E1B6E000E1C6ECDECC9
:101598000EF01BC022F01CC023F00BEC13F022C08D
:1015A80037F023C038F024C039F0480E0001666FC8
:1015B800000E0001676F37C02CF038C02DF039C01D
:1015C8002EF04AEC0DF02CC068F02DC069F0000E2A
:1015D80000016B6F0A0E6A6F3BEC12F0030E196E76
:1015E800480E1A6E000E1B6E010EEFEC0FF0000E87
:1015F800166E0A0E156EEDEC12F0C00E206E7F0E00
:10160800216E440E226E37C01DF038C01EF039C05E
:101618001FF051EC0EF01DC02CF01EC02DF01FC0A5
:101628002EF0000E2F6EC80E306E420E316ED1ECC9
:101638000DF02CC03AF02DC03BF02EC03CF03AC063
:101648002CF03BC02DF03CC02EF04AEC0DF02CC025
:1016580035F02DC036F0CBEC12F03AC02CF03BC080
:101668002DF03CC02EF04AEC0DF02CC035F02DC00A
:1016780036F0A9EC12F0480E0001666F000E00016A
:10168800676F3AC02CF03BC02DF03CC02EF04AECFE
:101698000DF02CC068F02DC069F0000E00016B6FD2
:1016A8000A0E6A6F3BEC12F0040E196E480E1A6EA1
:1016B800000E1B6E010EEFEC0FF0000E166E0A0EF8
:1016C800156EEDEC12F0000E446E000E456E000E25
:1016D800466E000E476E000E486E000E3E6E000EFF
:1016E8003D6E00D0FCEC13F000D0F5EC13F00009CF
:1016F800D8A4FBD7EDEC13F015C022F016C023F0E8
:101708000BEC13F022C07FF023C080F024C081F0DE
:10171800000E206EA00E216E400E226E7FC01DF0BE
:1017280080C01EF081C01FF051EC0EF01DC02CF0DF
:101738001EC02DF01FC02EF0C00E2F6E7F0E306E13
:10174800440E316ED1EC0DF02CC082F02DC083F028
:101758002EC084F082C070F083C071F084C072F033
:101768003FC073F040C074F0BBEC0CF070C041F0A7
:1017780071C042F0040E196E6A0E1A6E100E1B6EBE
:10178800080EEFEC0FF0040E196E41C01AF042C0BB
:101798001BF0080EEFEC0FF0000E166E640E156EBF
:1017A800EDEC12F0BCD60CEF08F01FC023F0246A51
:1017B800256A1E34233601E324802350286E22C074
:1017C80023F0246A256A2134233601E32480235038
:1017D800276E2850D8B40BD02750285CD8B00ED02C
:1017E800285000082724236E180E236407D020C031
:1017F8001DF021C01EF022C01FF0B8D02750D8B469
:101808000BD02850275CD8B00ED0275000082824C9
:10181800236E180E236407D01DC01DF01EC01EF0D5
:101828001FC01FF0A3D0060E266E1FAE02D0268E54
:1018380000D022BE268C1E8EFF0E1D16FF0E1E1611
:10184800000E1F16218EFF0E2016FF0E2116000E09
:1018580022162750285CD8B01ED0D89020362136C2
:101868002236270628502718D8B40FD0260626C0B7
:1018780023F0070E2316D8B408D0EFD706D0D89097
:101888001F321E321D32282A00D027502818D8B4FB
:1018980024D0F5D722D02850275CD8B01ED0D890B5
:1018A8001D361E361F36280628502718D8B40FD0E4
:1018B800260626C023F0070E2316D8B408D0EFD783
:1018C80006D0D890223221322032272A00D0275041
:1018D8002818D8B402D0F5D700D026AE0CD0FF0E09
:1018E8001D1AFF0E1E1AFF0E1F1A010E1D26000ECE
:1018F8001E22000E1F2226AC0DD0FF0E201AFF0E4E
:10190800211AFF0E221A010E2026000E2122000E97
:10191800222200D0000E266E1D5020261E502122A5
:101928001F50222222AE0FD0FF0E201AFF0E211ABE
:10193800FF0E221A010E2026000E2122000E22225E
:10194800010E266E00D020C015F021C016F022C06E
:1019580017F028C018F026C019F037EC0FF015C0A2
:101968001DF016C01EF017C01FF000D01200850E23
:1019780000017D6F000E00017E6F000172AF18D06C
:101988007DC0D9FF7EC0DAFF2D0EDF6E00017D4BD2
:101998007E2B70C015F071C016F072C017F0A0EC65
:1019A80013F015C070F016C071F017C072F000D0B7
:1019B80070C02CF071C02DF072C02EF04AEC0DF002
:1019C8002CC079F02DC07AF02EC07BF02FC07CF0AF
:1019D80070C029F071C02AF072C02BF079C01DF0D8
:1019E8007AC01EF07BC01FF07CC020F087EC11F09D
:1019F8001DC02CF01EC02DF01FC02EF087EC12F079
:101A080029C070F02AC071F02BC072F0240E206E2D
:101A1800740E216E490E226E70C01DF071C01EF04A
:101A280072C01FF051EC0EF01DC02CF01EC02DF03E
:101A38001FC02EF04AEC0DF02CC075F02DC076F0CA
:101A48002EC077F02FC078F07DC02BF07EC02CF030
:101A5800550E2D6E100E2E6E79C02FF07AC030F014
:101A68007BC031F07CC032F075C033F076C034F002
:101A780077C035F078C036F039EC08F0850E0001F3
:101A8800706F000E0001716F00D012002EC030F090
:101A9800316A326A2D34303601E33180305000012A
:101AA800656F00016551D8A402D044D075D0170ED7
:101AB800306E2CC031F02DC032F02EC033F03028FB
:101AC800346E04D0D890333232323132342EFAD7D1
:101AD80031500001606F2D8EFF0E2C16FF0E2D1653
:101AE800000E2E162C500001616F2D500001626F00
:101AF8002E500001636F0001646B8E0E0001655F5C
:101B0800000165AF13D000016551800A8F0FD8B06E
:101B180003D010D041D000D00001D8906433633393
:101B2800623361330001653FF7D71ED0170E0001FD
:101B3800656513D0000E2C6E000E2D6E000E2E6EF5
:101B4800000E2F6E29D009D00001D8906137623776
:101B5800633764370001650700D000016551000153
:101B6800D8B402D0F1D700D0000160510001D8B438
:101B78000AD00001641F631F621F616D000E62239B
:101B88006323642300D061C02CF062C02DF063C0D1
:101B98002EF064C02FF000D012002EC032F0336A4D
:101BA800346A2D34323601E3338032500001646FD9
:101BB80000016451D8A402D010D06ED031C032F0E8
:101BC800336A346A3034323601E3338032500001EC
:101BD800656F00016551D8A407D0000E2C6E000E69
:101BE8002D6E000E2E6E58D0000E0001616F000E93
:101BF8000001626F000E0001636F00016551890FDB
:101C08000001645F2EC065F031500001651B800E35
:101C1800000165172D8EFF0E2C16FF0E2D16000ED7
:101C28002E16308EFF0E2F16FF0E3016000E3116B0
:101C3800180E0001606F00D00001D890613762373C
:101C480063372F502C5C30502D5831502E58D8A067
:101C580008D02F502C5E30502D5A31502E5A00018A
:101C68006181D8902C362D362E360001602FE4D7AE
:101C780000D061C015F062C016F063C017F064C0F0
:101C880018F065C019F037EC0FF015C02CF016C02D
:101C98002DF017C02EF000D012001FC023F0246AC8
:101CA800256A1E34233601E324802350266E2650ED
:101CB800D8A402D00ED06CD022C023F0246A256AA2
:101CC8002134233601E3248023502B6E2B50D8A4D3
:101CD80007D0000E1D6E000E1E6E000E1F6E58D02F
:101CE8002B507B0F26261FC02BF022502B1A800E5C
:101CF8002B161E8E218EFF0E2016FF0E2116000EAB
:101D08002216000E276E000E286E000E296E070E92
:101D18002A6E00D01DA007D0205027262150282247
:101D28002250292200D0D8901F321E321D32D8905E
:101D38002036213622362A2EEDD700D0090E2A6EFB
:101D480000D01DA007D0205027262150282222503D
:101D5800292200D0D8901F321E321D32D890293245
:101D6800283227322A2EEDD700D027C015F028C0F8
:101D780016F029C017F026C018F02BC019F037EC60
:101D88000FF015C01DF016C01EF017C01FF000D0D0
:101D9800120003D01B4A1C2A00D01BC0D9FF1CC04C
:101DA800DAFF200EDE18D8B4F5D71BC0D9FF1CC047
:101DB800DAFF090EDE18D8B4EDD7000E216E000E3A
:101DC800206E000E1F6E1BC0D9FF1CC0DAFF2D0E3F
:101DD800DE18D8A402D01F2A25D01BC0D9FF1CC0EA
:101DE800DAFF2B0EDE18D8A420D01CD01ED020C0BD
:101DF80015F021C016F0000E186E0A0E176E8CEC46
:101E080013F01BC0D9FF1CC0DAFFDF501D6E1E6A1D
:101E180015501D2616501E22D00E1D24206EFF0EB2
:101E28001E20216E1B4A1C2A00D01BC0D9FF1CC0D3
:101E3800DAFFDF50C4EC13F0D8B0D9D71F50D8B4AC
:101E48000DD020C01DF021C01EF01D1E1E1E1D4AF3
:101E58001E2A1DC01BF01EC01CF004D020C01BF0A1
:101E680021C01CF012001850D8B405D01550161017
:101E78001710D8A40ED0000E156E000E166E000EA8
:101E8800176E53D006D0182AD8901732163215324A
:101E980000D0000E15141A6E000E16141B6EFE0EDE
:101EA80017141C6E1A501B101C10D8B40ED0EBD788
:101EB8000CD0182A010E1526000E1622000E172225
:101EC800D89017321632153200D0000E15141A6E3B
:101ED800000E16141B6EFF0E17141C6E1A501B10E2
:101EE8001C10D8B408D0E5D706D01806D8901536F7
:101EF8001636173600D016BE04D0020E1860F5D775
:101F080000D018B002D0169E00D0D89018321850C1
:101F180017121950D8B402D0178E00D015C015F07A
:101F280016C016F017C017F000D012001EC022F01D
:101F38001FC023F000D022C015F023C016F020C027
:101F480017F021C018F0E6EC11F015C022F016C009
:101F580023F01C4A1D2A22502310D8A4ECD71CC0F9
:101F6800D9FF1DC0DAFF000EDF6E1C06D8A01D06C3
:101F780000D01EC015F01FC016F020C017F021C0F9
:101F880018F061EC12F01550246E1EC015F01FC039
:101F980016F020C017F021C018F0E6EC11F015C0BB
:101FA8001EF016C01FF0090E246402D0070E242666
:101FB800300E24261CC0D9FF1DC0DAFF24C0DFFF65
:101FC8001C06D8A01D061E501F10D8A4D2D71C4A24
:101FD8001D2A00D012001D6E1904D8A402D0800E4C
:101FE80011D0020E1918D8A402D0C00E0BD0030EBF
:101FF8001918D8A402D0900E05D0040E1918D8A428
:1020080003D0D00E1F6E00D01F501D241C6E1C0460
:102018001E6E000E166E000E156E1E5077EC13F035
:1020280019D0000E166E010E156E1AC0F6FF1BC0F1
:10203800F7FFF86A070EF76403D00800F55005D0DB
:10204800F6CFD9FFF7CFDAFFDF5077EC13F01A4A53
:102058001B2A00D01AC0F6FF1BC0F7FFF86A070E4C
:10206800F76403D00800F55005D0F6CFD9FFF7CFB5
:10207800DAFFDF500009D8A4D4D71200000E166E7C
:10208800030E156EEDEC12F0000E166E000E156EB6
:10209800380E77EC13F0000E166E000E156E0E0E4D
:1020A80077EC13F04E0E1A6EEB0EE82EFED71A2EB2
:1020B800FCD700F0000E166E000E156E060E77ECBB
:1020C80013F0000E166E000E156E300E77EC13F03E
:1020D800000E166E000E156E300E77EC13F0000E23
:1020E800166E000E156E300E77EC13F0000E166E9D
:1020F800000E156E380E77EC13F0000E166E000EFB
:10210800156E010E77EC13F0000E166E000E156EAC
:10211800060E77EC13F01200000E1D6E000E1E6EF8
:10212800000E1F6E000E206E19501A101B101C1086
:10213800D8B42FD0010E216E07D0D89019361A3690
:102148001B361C36212A00D01CBE02D0F6D700D080
:10215800D8901D361E361F3620361950155C1A5079
:1021680016581B5017581C501858D8A00AD0195088
:10217800155E1A50165A1B50175A1C50185A1D80B3
:1021880000D0D8901C321B321A321932212EE0D7D7
:1021980000D01DC015F01EC016F01FC017F020C0DB
:1021A80018F012000600EACF0AF0E1CF0BF0E2CFF8
:1021B8000CF0D9CF0DF0DACF0EF0F3CF0FF0F4CF4B
:1021C80010F0F6CF11F0F7CF12F0F8CF13F0F5CFEB
:1021D80014F0440E026E000E036E030E046E5FECE4
:1021E80013F0000E3E6E010E3D6E9E9A14C0F5FF70
:1021F80013C0F8FF12C0F7FF11C0F6FF10C0F4FFBC
:102208000FC0F3FF0EC0DAFF0DC0D9FF0CC0E2FF0C
:102218000BC0E1FF0AC0EAFF09C0E9FF08C0FBFFE5
:1022280007C0FAFF1100176E000EAC6E000EAB6E01
:1022380017A002D0AC8800D017A203D0AC8CAB8C0E
:1022480000D017A402D0AC8E00D017A602D0AB885D
:1022580002D0AB8A00D017B8AC849E9817AA02D0D7
:10226800AB8600D017AC02D09D8A01D09D9A9E9A69
:1022780017AE02D09D8801D09D9815C0AFFF1650AB
:10228800B06EAC8AAB8E949C948EACB8ACBE02D0C7
:10229800948C00D012002650271028102910D8B48A
:1022A80029D0010E2A6E07D0D89026362736283630
:1022B80029362A2A00D029BE02D0F6D700D02650C7
:1022C800225C275023582850245829502558D8A034
:1022D80009D02650225E2750235A2850245A2950C4
:1022E800255A00D0D89029322832273226322A2E71
:1022F800E6D700D022C022F023C023F024C024F067
:1023080025C025F012008E0E256E07D0D8902032F9
:102318001F321E321D32252A00D0000E1D14216ED8
:10232800000E1E14226E000E1F14236EFF0E2014C2
:10233800246E2150221023102410D8A4E7D71DC0E2
:1023480015F01EC016F01FC017F025C018F0000EBB
:10235800196E37EC0FF015C01DF016C01EF017C02F
:102368001FF000D01200196E000EC26E000EC06E73
:10237800D89015303C0BC26E15C017F0173AF00E06
:102388001716300E171616500F0B1710C16E19C0FE
:1023980017F0D8901736D8901736380E171619C078
:1023A80018F0183A0F0E1816070E18161950800B49
:1023B80018101710C06E15AE03D09E9C9D8CF28C21
:1023C800C2801200000E1A6E000E196E17501810F7
:1023D800D8B421D0010E1B6E05D0D8901736183608
:1023E8001B2A00D018BE02D0F8D700D0D8901936D2
:1023F8001A361750155C18501658D8A006D0175022
:10240800155E1850165A198000D0D8901832173215
:102418001B2EECD700D019C015F01AC016F0120008
:10242800800ED06E0F0EC16E0F0EB46EC50ED56E37
:10243800070ECA6E010E926E000E936E800E946E99
:10244800000E956E000E966E80928094809680980D
:10245800809A000E816E82908292829482968298EF
:10246800829A829C000E836E000E846E120066C0F3
:1024780035F067C036F0000169AF0FD066C0D9FFEC
:1024880067C0DAFF2D0EDF6E0001664B672B000177
:10249800686D691FD8B0692B00D066C01CF067C092
:1024A8001DF068C01EF069C01FF06AC020F06BC044
:1024B80021F09AEC0FF000D0120017501810D8B481
:1024C8001DD0010E196E05D0D89017361836192A66
:1024D80000D018BE02D0F8D700D01750155C18509D
:1024E8001658D8A005D01750155E1850165A00D0A7
:1024F800D89018321732192EF0D700D015C015F021
:1025080016C016F012002C502D102E10D8B407D07B
:10251800000E2C1A000E2D1A800E2E1A00D029C07B
:102528001DF02AC01EF02BC01FF02CC020F02DC0BB
:1025380021F02EC022F0D9EC0BF01DC029F01EC0EE
:102548002AF01FC02BF000D0120035C066F036C04C
:1025580067F0060ED890000166376737E82EFAD77D
:1025680066C068F067C069F069C0BBFF68C066F004
:102578000001D89066330001D8906633300E000110
:102588006617BA50CF0B00016611BA6E120035C03B
:1025980066F036C067F0060ED890000166376737D8
:1025A800E82EFAD766C068F067C069F069C0BEFF58
:1025B80068C066F00001D89066330001D890663391
:1025C800300E00016617BD50CF0B00016611BD6EBD
:1025D8001200000E196E000E186E0AD09C0E176EAF
:1025E800D70EE82EFED7172EFCD700F0184A192A66
:1025F8001550185C1950800A176E1650800A175823
:10260800D8A0ECD7000E196E000E186E1200000E3E
:10261800256E23AE07D0226C231ED8B0232A010EC4
:10262800256E00D022C015F023C016F0176A8E0E52
:10263800186E25C019F037EC0FF015C022F016C03F
:1026480023F017C024F000D01200156E0C0EBA6EDD
:10265800050EF66E000EF76E300EF86E08000001DB
:10266800F5A002D0166802D0000E166E1650D8B427
:1026780002D0949201D09396CA9415C0CBFFCA8415
:102688001200000E196E000E1A6E000E186E4F0E14
:10269800AB16AC9ACF0E9D16F28EF28C9F8A6C0EFA
:1026A800196E4D0E1A6E1AC015F0166A195017ECED
:1026B80011F09E9A1200000E066E10D000D09EAA4D
:1026C800FED7B2EC13F0056E02C0D9FF03C0DAFFE3
:1026D80005C0DFFF024A032A062A00D00450065C20
:1026E800D8A0EDD71200186E839215B002D083904F
:1026F80001D0838018C081FF83824E0E176EEB0EC7
:10270800E82EFED7172EFCD700F083928390120094
:1027180015501702F3CF19F0F4CF1AF0155018021C
:10272800F3501A2616501702F3501A2619C015F03E
:102738001AC016F000D01200155016101710D8B491
:1027480006D0000E151A000E161A800E171A15C09C
:1027580015F016C016F017C017F01200F20E431647
:10276800ABAC05D04390ABA002D0438000D0ABB453
:102778004384ABB24386AECF01F0015000D01200C3
:10278800176E000E166E3A0E176006D02F0E1764DD
:1027980003D0010E166E00D016C015F0153000D00B
:1027A800120000EE7FF0170EEE6AE806FDE100EE7B
:1027B80037F0140EEE6AE806FDE1000147EF0AF073
:1027C800156E0C0EBD129494CA9415C0CBFFCA8422
:1027D8001200C450176EC350156E17C016F000D003
:1027E8001200C2A202D0010E02D0000E00D01200C8
:0427F800C282120087
:020000040020DA
:08000000FFFFFFFFFFFFFFFF00
:020000040030CA
:0E00000000051F1FFF8385FF0FC00FE00F409C
:00000001FF
